S32100400000A55AA55A010000000000000000204000000000000020400000000000DF
S3210040001C0020400000000000000000000000000000000000FFFFFFFFFFFFFFFF2A
S32100400038FFFFFFFFFFFFFFFFFFFFFFFFFFFFFFFFFFFFFFFFFFFFFFFFFFFFFFFF82
S32100400054FFFFFFFFFFFFFFFFFFFFFFFFFFFFFFFFFFFFFFFFFFFFFFFFFFFFFFFF66
S32100400070FFFFFFFFFFFFFFFFFFFFFFFFFFFFFFFFFFFFFFFFFFFFFFFFFFFFFFFF4A
S3210040008CFFFFFFFFFFFFFFFFFFFFFFFFFFFFFFFFFFFFFFFFFFFFFFFFFFFFFFFF2E
S32100401FF0FFFFFFFFFFFFFFFFFFFFFFFFFFFFFFFF000001203524400071B2410081
S3210040200C73B2410075B2410077B2410079B24100000000000000000000000000CE
S32100402028000000007BB241007DB24100000000007FB2410081B2410083B241001C
S3210040204483B2410083B2410083B2410083B2410083B2410083B2410083B2410000
S3210040206083B2410083B2410083B2410083B2410083B2410083B2410083B24100E4
S3210040207C83B2410083B2410083B2410083B2410083B2410083B2410083B24100C8
S3210040209883B2410083B2410083B2410083B2410083B2410083B2410083B24100AC
S321004023FC83B2410083B2410083B24100FFFFFFFFFFFFFFFF00204000A0C445001C
S32100402418312E30332E323000000000000000000000BF00BF00BF00BFFAE7FFFF35
S3210040243472B64FF000004FF000014FF000024FF000034FF000044FF000054FF056
S3210040245000064FF000074FF06400401E0028FCDC594801684FF0807201EA0201B4
S3210040246C002924D1564801684FF0807241EA02010160544801684FF0010241EAB7
S3210040248802010160514845F6F02101604AF20F5101604D4801684FF0010201EA20
S321004024A402010129F7D0474801684FF0807201EA02010029F7D047484CF220519D
S321004024C001604DF628110160444845490160454845490160454908684FF0040242
S321004024DC20EA02004FF0010240EA02000860414908684FF0040220EA02004FF032
S321004024F8010240EA020008603C4801684FF00000814220D13A4C2468002C12D1EA
S32100402514394C2468002C08D1374CA4684FF0110504EA0504002C00D10FE034480C
S3210040253000280CD0334A344B01E0344A324B9A4205DA00200021E2E802019A42C8
S3210040254CFBDB3048002809D02F4A304B9A4205DA00200021E2E802019A42FBDB6F
S321004025682C48002809D02C4A2C4B9A4205DA00200021E2E802019A42FBDB2948C3
S3210040258400684FF05A318842F9D0274880F30888174801684FF00000814202D022
S321004025A018F01EFF01E018F06DFE0E48204901601AF014FE1AF0EAFD62B61AF011
S321004025BCE5FD00F036F900BFFEE700BF10C32D4030C32D4004C32D4000C02D4058
S321004025D81000274000002740400000FF08ED00E00020400094EF00E090EF00E08D
S321004025F4040026400CC02D4000C0284001000000000040200040442000804020D5
S32100402610010000000000002000000120010000000000000000800000E0B64020AF
S3210040262C0000012000000020FFFFFFFFFFFFFFFFFFFFFFFFFFFFFFFFFFFFFFFF1F
S32100402648FFFFFFFFFFFFFFFFFFFFFFFFFFFFFFFFFFFFFFFFFFFFFFFFFFFFFFFF4C
S32100402664FFFFFFFFFFFFFFFFFFFFFFFFFFFFFFFFFFFFFFFFFFFFFFFFFFFFFFFF30
S32100402680FFFFFFFFFFFFFFFFFFFFFFFFFFFFFFFFFFFFFFFFFFFFFFFFFFFFFFFF14
S3210040269CFFFFFFFFFFFFFFFFFFFFFFFFFFFFFFFFFFFFFFFFFFFFFFFFFFFFFFFFF8
S321004026B8FFFFFFFFFFFFFFFFFFFFFFFFFFFFFFFFFFFFFFFFFFFFFFFFFFFFFFFFDC
S321004026D4FFFFFFFFFFFFFFFFFFFFFFFFFFFFFFFFFFFFFFFFFFFFFFFFFFFFFFFFC0
S321004026F0FFFFFFFFFFFFFFFFFFFFFFFFFFFFFFFFFFFFFFFFFFFFFFFFFFFFFFFFA4
S3210040270CFFFFFFFFFFFFFFFFFFFFFFFFFFFFFFFFFFFFFFFFFFFFFFFFFFFFFFFF87
S32100402728FFFFFFFFFFFFFFFFFFFFFFFFFFFFFFFFFFFFFFFFFFFFFFFFFFFFFFFF6B
S32100402744FFFFFFFFFFFFFFFFFFFFFFFFFFFFFFFFFFFFFFFFFFFFFFFFFFFFFFFF4F
S32100402760FFFFFFFFFFFFFFFFFFFFFFFFFFFFFFFFFFFFFFFFFFFFFFFFFFFFFFFF33
S3210040277CFFFFFFFFFFFFFFFFFFFFFFFFFFFFFFFFFFFFFFFFFFFFFFFFFFFFFFFF17
S32100402798FFFFFFFFFFFFFFFFFFFFFFFFFFFFFFFFFFFFFFFFFFFFFFFFFFFFFFFFFB
S321004027B4FFFFFFFFFFFFFFFFFFFFFFFFFFFFFFFFFFFFFFFFFFFFFFFFFFFFFFFFDF
S321004027D0FFFFFFFFFFFFFFFFFFFFFFFFFFFFFFFFFFFFFFFFFFFFFFFFFFFFFFFFC3
S321004027ECFFFFFFFFFFFFFFFFFFFFFFFFFFFFFFFFFFFFFFFF7047704770477047C3
S32100402808704770477047704770474DF8048D40F20408C4F22608D8F8000000F023
S321004028240300C0B25DF8048B704700B54FF00000FFF7EDFF38B94FF0000003F049
S32100402840F3FAC0B201F075F900E0FEE74FF0000000BD000000F020E300F020E3D1
S3210040285C1EFF2FE100BF70474FF0000070474FF0000070474DF8048D40F2040877
S32100402878C4F22608D8F8000000F00300C0B25DF8048B704700B548F29840C2F2CF
S32100402894400043F25751C0F24001816000F1080101F1040143F2CF62C0F24002A6
S321004028B00A6000F1080101F1080143F67922C0F240020A6000F1080101F10C013C
S321004028CC43F61132C0F240020A6000F1080101F1100143F61732C0F240020A60F3
S321004028E800F1080101F1140143F61D32C0F240020A6000F108014FF000034FF02C
S3210040290406020AF05EFF4CF67C30C2F240004FF004010BF01BF900BD10B548F221
S321004029209844C2F2400420460AF06BFF94F8210010B14FF0100001E04FF00000DA
S3210040293C10BD10B54FF000040BF047FD204610BD2DE9104189B047F60028C0F23B
S321004029584408D8F8000047F60028C0F24408D8F804100790089148F29844C2F2C0
S32100402974400407A804904FF0000005904FF0000006904FF0000004A803F0CFFF25
S3210040299094F82510002940F0A88094F8241091BB002840F0A28047F61021C0F2FD
S321004029AC440104984FF005020AF0FAFB002840F0968001AA47F61820C0F244002F
S321004029C80BC882E80B004FF00800039047F60820C0F24400019001A803F0E0FF24
S321004029E444F20408C4F22708D8F8000043F20051C0F20C010844A0624FF00100C7
S32100402A0084F8240071E04FF0000100284ED147F61021C0F2440104984FF00502B5
S32100402A1C0AF0C6FB002843D049F27858C2F2400898F80000012815D14FF000007D
S32100402A3849F27858C2F2400888F800004FF0000000909DF818000346049940F221
S32100402A54DF704FF000020FF088FE25E049F27858C2F2400898F80000022815D15F
S32100402A704FF0000049F27858C2F2400888F8000004F041F94FF0000100919DF8AA
S32100402A8C18100B4604994FF000020FF06AFE07E04FF0000049F27858C2F24008FD
S32100402AA888F800000BF093FC03F016F80146C1B14FF0010084F82500022912D119
S32100402AC44FF0010084F8200040F20008C2F2400898F8150040F00100C0B240F224
S32100402AE00008C2F2400888F8150044F20408C4F22708D8F80000A16AA0EB01006D
S32100402AFC002803DB4FF0010084F8250009B0BDE810812DE9704188B048F298448D
S32100402B18C2F2400447F62420C0F24400694602680A6042684A6082688A60C26817
S32100402B34CA6002690A6142694A6182698A61C069C8614FF000064FF0010504F043
S32100402B50F9F9A8B94FF000054FF0010084F8200040F20008C2F2400898F81500D5
S32100402B6C40F00200C0B240F20008C2F2400888F815009FE048F2F548C2F24008A6
S32100402B8898F8000060B94FF0010048F2F548C2F2400888F80000616B206B04F0C4
S32100402BA4E1F80646002E74D1684604F006F9102800F08480694604F13C0004F096
S32100402BC05CF90646012E44D14FF0010048F2F448C2F2400888F8000048F22158E9
S32100402BDCC2F2400898F80000012809D1694640F20100C0F205004FF0200201F01D
S32100402BF8C9FC1CE040F20500C0F201004FF001024FF0000101F07DFD4FF00100A3
S32100402C1484F8200040F20008C2F2400898F8150040F00400C0B240F20008C2F253
S32100402C30400888F8150040F20900C0F201004FF001034FF001024FF0000101F0C1
S32100402C4C07FEF8B11EE04FF0000048F2F448C2F2400888F8000040F20500C0F260
S32100402C6801004FF001024FF0010101F04AFD40F20900C0F201004FF001034FF0DE
S32100402C8401024FF0010101F0E7FD00284FF0000514E04FF000054FF0010084F875
S32100402CA0200040F20008C2F2400898F8150040F00800C0B240F20008C2F24008F7
S32100402CBC88F81500284608B0BDE870812DE91041A3B048F29844C2F240044FF05E
S32100402CD8000094F82600002840F0C38047F64420C0F2440011A900F14802036856
S32100402CF40B6000F1040001F104018242F7D14FF0410247F68C21C0F2440168468A
S32100402D1017F068FE4FF0010084F826004CF6D438C2F2400898F8030000287FD1BD
S32100402D2C11A94FF0040001F031FB002878D11798B0F5940F74D91798B0F1FF3FE8
S32100402D4870D015984EF20001C0F23101884269D240F20008C2F2400898F8080044
S32100402D644FEA002040F20801C2F2400101F10101097841EA000045F6A521884219
S32100402D803CD04CF6D438C2F2400898F8040098B969464FF0050001F0FFFA68B9B8
S32100402D9C17982063159860630D98A06304A904F13C004FF020020AF035F958E0EC
S32100402DB840F20500C0F201004FF001024FF0000101F09FFC4FF0010084F82700DE
S32100402DD44FF0010084F8200040F20008C2F2400898F8150040F01000C0B240F202
S32100402DF00008C2F2400888F8150036E04FF0010084F827004FF0010084F8200013
S32100402E0C40F20008C2F2400898F8150040F02000C0B240F20008C2F2400888F811
S32100402E2815001EE04FF0010048F2F448C2F2400888F800004FF0010084F8270020
S32100402E444FF0010084F8200040F20008C2F2400898F8150040F04000C0B240F261
S32100402E600008C2F2400888F8150094F82700A0B94CF6BC38C2F24008D8F8000069
S32100402E7C012808D1FFF745FE4CF6BC38C2F24008C8F8000003E04FF0010084F828
S32100402E98270023B0BDE810812DE91041ADF54F7D04464FF000014FF4017247F656
S32100402EB4D031C0F2440142A817F092FDC7AA20464FF4806109F0B6FF18B14FF093
S32100402ED0010108464BE0C5AA20464FF4806109F0CEFF18B14FF00101084640E0EE
S32100402EEC4FF40060429047F6D021C0F2440143A84FF480720AF08EF847F6CD211F
S32100402F08C0F2440183A800F1FD004FF003020AF083F842A800900DF54678B8F8B4
S32100402F240030C59A01A902A809F0A5FE014619B14FF00101084618E0C3AABDF812
S32100402F400400014602A809F0CCFF18B14FF0010108460CE0C7A9C3984FF0200206
S32100402F5C0AF026F910B94FF0000101E04FF0010108460DF54F7DBDE810812DE967
S32100402F78F041ADF5497D07460D4616464FF000044FF4017247F6D451C0F2440110
S32100402F9442A817F025FDC3ABC5AA38464FF4806109F0C8FF014619B14FF0010434
S32100402FB020463BE04FF4006042900DF54678B8F80020C59943A80AF02BF8C39977
S32100402FCC83A800F580700DF54478B8F80020A0EB02004FF002020AF01DF842A83C
S32100402FE800902A4601A902A84FF4807309F041FE04461CB14FF00104204613E011
S32100403004C7AABDF80400014602A809F068FF014619B14FF00104204606E0C799EE
S3210040302030464FF0200209F0FBFF20460DF5497DBDE8F08110B5BBB04FF00004CD
S3210040303C47F6D870C0F2440033A902680A6042684A6082688A60C268CA60026920
S321004030580A6142694A6182698A61C069C8614FF000004FF000008DF8030002F035
S32100403074ADFDFFF713FF0446002C54D102F0B0FD044602F0A3FD33AA2146FFF7F8
S3210040309072FF0446F4BB01A809F082FA02F093FD014601A84FF0200209F092FCFC
S321004030AC02F090FD014601A84FF4806209F08AFC02F08DFD014601A84FF00A02F8
S321004030C809F082FC01A809F0C1FC014633A84FF020020AF067F860B94FF0040098
S321004030E48DF803000DF103014FF4C0400BF075FB4FF0000421E04FF005008DF845
S3210040310003000DF103014FF4C0400BF068FB4FF0010414E04FF006008DF80300C2
S3210040311C0DF103014FF4C0400BF05BFB09E04FF005008DF803000DF103014FF4C1
S32100403138C0400BF050FB54B140F20600C0F201004FF001024FF0000101F0DBFAB7
S3210040315409E040F20600C0F201004FF001024FF0010101F0D0FA4FF0030002F0D3
S3210040317014FD20463BB010BD2DE9304188B004460D464FF0000047F6F870C0F2DC
S3210040318C4400694602680A6042684A6082688A60C268CA6002690A6142694A6172
S321004031A882698A61C069C8614FF00000402C50D103F0C4FE03284AD144F2040894
S321004031C4C4F22708D8F8000044F24021C0F20F012944A0EB0100002801DB4FF05F
S321004031E00104684603F0EBFD102836D040F20800C0F201004FF001034FF01B0235
S321004031FC4FF0010101F02CFB0028694640F20100C0F205004FF0200201F0BAF952
S3210040321868B140F20700C0F201004FF001034FF018024FF0000101F015FB90B131
S3210040323411E040F20700C0F201004FF001034FF018024FF0010101F007FB002863
S321004032504FF0000401E04FF00104204608B0BDE830812DE930414FF000054FF036
S3210040326C000440F26C08C0F24A08D8F80040BFF36F8F04F1040000680DB900B1BA
S321004032888047BDE830812DE9304186B04FF000044FF0000548F21808C0F244082B
S321004032A4B8F80000ADF8020048F21A08C0F24408B8F80000ADF8040048F21C0860
S321004032C0C0F24408B8F80000ADF8060048F21E08C0F24408B8F80000ADF8080098
S321004032DC48F22008C0F24408B8F80000ADF80A0048F22208C0F24408B8F80000BF
S321004032F8ADF80C0048F22408C0F24408B8F80000ADF80E0048F22608C0F2440896
S32100403314B8F80000ADF8100048F22808C0F24408B8F80000ADF8120048F22A08B7
S32100403330C0F24408B8F80000ADF8140048F22C08C0F24408B8F80000ADF81600FD
S3210040334C03F0DEFCC0B2044603F0D7FCC0B205460DF1160140F20000C2F24000D8
S3210040336800F10A004FF0020209F01CFF88B940F20000C2F2400000F10A004FF010
S3210040338402024FF0000109F0BDFE294620464FF002020BF00AFF0DF1020140F2A0
S321004033A00000C2F2400000F10A004FF0020209F0FDFE58B103A940F20000C2F20A
S321004033BC400000F10A004FF0020209F0F1FE90B940F20000C2F2400000F10A00DF
S321004033D84FF002024FF0000109F092FE294620464FF001020BF04BFFAEE001A9F3
S321004033F440F20000C2F2400000F10A004FF0020209F0D2FE60B10DF10E0140F2FA
S321004034100000C2F2400000F10A004FF0020209F0C5FE90B940F20000C2F24000FD
S3210040342C00F10A004FF002024FF0000109F066FE294620464FF002020BF01FFF32
S3210040344882E00DF1060140F20000C2F2400000F10A004FF0020209F0A5FE58B1B2
S3210040346404A940F20000C2F2400000F10A004FF0020209F099FE90B940F20000EA
S32100403480C2F2400000F10A004FF002024FF0000109F03AFE294620464FF003022E
S3210040349C0BF0F3FE56E002A940F20000C2F2400000F10A004FF0020209F07AFE2C
S321004034B860B10DF1120140F20000C2F2400000F10A004FF0020209F06DFE90B97F
S321004034D440F20000C2F2400000F10A004FF002024FF0000109F00EFE2946204618
S321004034F04FF004020BF0C7FE2AE00DF10A0140F20000C2F2400000F10A004FF002
S3210040350C020209F04DFE58B105A940F20000C2F2400000F10A004FF0020209F001
S3210040352841FE88B940F20000C2F2400000F10A004FF002024FF0000109F0E2FD45
S32100403544294620464FF005020BF09BFE06B0BDE830812DE93041054648F2984482
S32100403560C2F240044FF000004FF000000846401E04D326D0401E00F0A480A6E022
S3210040357C4FF0000084F820004FF0000084F824004FF0000084F825004FF0000014
S3210040359884F827004FF0000084F826004FF0010084F8210044F20408C4F2270849
S321004035B4D8F8000044F620610844A06283E048F22058C2F2400898F8000020B962
S321004035D0FFF7BCF9FFF778FB1EE04FF0010048F2F448C2F2400888F800004FF016
S321004035EC010084F825004FF0010084F827004FF0010084F8200040F21500C2F221
S32100403608400000F10102107840F00100C0B2107094F82500002854D094F82700D1
S32100403624002850D094F82000A0B34FF0010084F8220040F20008C2F2400898F859
S3210040364008004FEA002040F20801C2F2400101F10101097841EA000045F6A521F6
S3210040365C884203D002F03EFA022803D14FF002000BF012FF4CF6C030C2F24000D4
S321004036784FF001010AF068FA03F047F9FFF703FEFDB14FF0010068704FF0010023
S32100403694A87018E040F20900C0F201004FF001034FF003024FF0010101F0D6F84F
S321004036B0002855B14FF0050068704FF00100A87003E04FF0000084F82100BDE8B2
S321004036CC30812DE9104186B0044648F29842C2F240024FF000008DF800004FF0F7
S321004036E80000ADF802004FF000008DF801004FF000000846401E04D308D0401E1C
S3210040370400F0B181B3E14FF0000082F82100AEE102F0FAF9012810D14FF0020014
S3210040372002F0E9F944F20408C4F22708D8F8000048F21858C2F24008C8F8000016
S3210040373C99E102F0E5F9022823D144F20408C4F22708D8F8000048F21858C2F26E
S321004037584008D8F8001043F68002C0F201021144A0EB01000028C0F280814FF07C
S32100403774030002F0BEF9002C00F079814FF0020060704FF00100A07071E102F08C
S321004037900FFA012810D144F20408C4F22708D8F8000048F21458C2F24008C8F86B
S321004037AC00004FF0020002F0F2F95CE102F0FAF9022824D144F20408C4F2270835
S321004037C8D8F8000048F21458C2F24008D8F8001043F68002C0F201021144A0EBFD
S321004037E401000028C0F2438103F09DFAFFF720FC20B94FF0020002F02CFA38E1FD
S321004038004FF0000002F027FA33E102F08EF9FE2810D144F20408C4F22708D8F889
S3210040381C000048F21058C2F24008C8F800004FF0010002F087F91EE102F079F9D7
S32100403838012840F0B78044F20408C4F22708D8F8000048F21058C2F24008D8F839
S32100403854001043F68002C0F201021144A0EB01000028C0F2048140F20600C0F268
S3210040387001004FF002024FF0010100F046FF40F20600C0F201004FF001024FF0D0
S3210040388C010100F03CFF0DF1020140F20300C0F201004FF0020200F026FEBDF8B8
S321004038A802004FF6FF71884210D2BDF8020000F1010080B2ADF802000DF10201D8
S321004038C440F20300C0F201004FF0020200F05CFE4FF000008DF801000DF1010168
S321004038E040F20400C0F201004FF0010200F04EFE01A802F030F948F2F842C2F233
S321004038FC400201AC0BCC0BC294E8030082E803004FF0020002F016F948F2F8482F
S32100403918C2F24008D8F80C1048F2F848C2F24008D8F8080003F01CFA68B940F2BB
S321004039340800C0F201004FF001034FF01A024FF0010100F089FF68B10CE040F2E8
S321004039500800C0F201004FF001034FF01A024FF0000100F07BFF00284FF040006B
S3210040396C4CF6D038C2F24008C8F8000040F20800C0F201004FF001034FF01B0267
S321004039884FF0000100F066FF002844F20408C4F22708D8F8000048F20C58C2F2D7
S321004039A44008C8F8000062E002F0BDF8022848D148F20C58C2F24008D8F8001013
S321004039C04CF6D038C2F24008D8F80000FFF7D4FB4CF6D038C2F24008C8F80000C4
S321004039DC4CF6D038C2F24008D8F8000068B94FF004008DF80000694640F2032086
S321004039F80AF0F1FE4FF0030002F09EF835E04CF6D038C2F24008D8F80000012866
S32100403A142DD140F20600C0F201004FF002024FF0000100F070FE4FF0030002F052
S32100403A3087F84FF006008DF80000694640F203200AF0CDFE15E002F070F80428A7
S32100403A4C11D14FF0030002F075F84FF005008DF80000694640F203200AF0BBFE15
S32100403A6803E04FF0010082F8210006B0BDE810812DE9104181B004464FF0000031
S32100403A840846401E04D306D0401E00D13BE03AE010F04FF837E010F059F810F074
S32100403AA072F9032801D004282FD1032802D14FF0040001E04FF005008DF8030043
S32100403ABC9DF80300042808D14FF0010048F21C58C2F2400888F8000007E04FF07B
S32100403AD8000048F21C58C2F2400888F800000DF103014FF47F400AF076FE4FF0B1
S32100403AF4000001F0FEFF34B14FF0010060704FF00100A070FFE701B0BDE8108170
S32100403B100A46921E70470A46921E704700B50A46121E01D0921E03E002F0B2FEAA
S32100403B2CFFF799FB00BD00B500F032FB01F0E3FEFEF7A6FE0AF091F900BD4DF82D
S32100403B48048D4FF0000048F29848C2F2400888F822005DF8048B70474DF8048D22
S32100403B6448F2F448C2F2400898F800005DF8048B70474DF8048D48F21C58C2F22A
S32100403B80400898F800005DF8048B70474DF8048D48F21C58C2F2400888F8000070
S32100403B9C5DF8048B7047000081B04FF00100ADF802009DF8020001280CBF012068
S32100403BB8002001B0704770B50C46054616464FF00003FFF7EBFF88B14FF0000368
S32100403BD40BE0A4F10100A0EB0300304403EB05010978017003F10100C3B2A342D7
S32100403BF0F1D30DE04FF0000308E003EB060003EB05010978017003F10100C3B254
S32100403C0CA342F4D370BD2DE9F04188B04FF000054FF0000648F22857C2F24007C1
S32100403C2848F29174C2F24004394642F20000C1F200004FF0570203F00DF80546C2
S32100403C4438464FF0530103F050F8064695B9D7F8530086420ED1384617F071FA7F
S32100403C6044F24C52C5F2410244F65F03C5F257338B4200D1824215D04FF00100D0
S32100403C7C4CF6D438C2F2400888F8010040F20700C0F201004FF001034FF00202A9
S32100403C984FF0000100F0DEFDA8B114E04FF000004CF6D438C2F2400888F8010068
S32100403CB440F20700C0F201004FF001034FF002024FF0010100F0C8FD00284CF6DC
S32100403CD0D438C2F2400898F80300002840F0F18048F2BD50C2F2400017F02BFAC7
S32100403CEC10F5940041F1000148F22458C2F24008C8F8000048F22458C2F2400886
S32100403D08D8F800004EF20001C0F27B01884240F0B180214648F22458C2F24008D6
S32100403D24D8F800004FF0410202F0C7FE054620464FF03D0102F0D9FF064695B9A2
S32100403D40D4F83D0086420ED1204617F0FAF944F24C52C5F2410245F25F63C5F293
S32100403D5C53338B4200D1824250D04FF001004CF6D438C2F2400888F8040040F2BD
S32100403D780700C0F201004FF001034FF005024FF0000100F067FD002865B140F2A2
S32100403D940700C0F201004FF001034FF01A024FF0000100F059FD0028D4F83D00BE
S32100403DB086420CD040F20700C0F201004FF001034FF01B024FF0000100F048FD0D
S32100403DCC0028204617F0B7F944F24C52C5F2410245F25F63C5F253338B4200D1AE
S32100403DE8824239D040F20700C0F201004FF001034FF01C024FF0000100F02CFDC7
S32100403E0460B32BE04FF000004CF6D438C2F2400888F8040040F20700C0F2010045
S32100403E204FF001034FF005024FF0010100F016FD002868464FF020024FF00001FC
S32100403E3C09F064F904F1100069464FF0200209F0AFF938B94FF0010048F2215834
S32100403E58C2F2400888F8000040F20900C0F201004FF001034FF008024FF00101D1
S32100403E7400F0F2FCA8B114E04FF001004CF6D438C2F2400888F8040040F2090078
S32100403E90C0F201004FF001034FF008024FF0000100F0DCFC002840F20700C0F276
S32100403EAC01004FF001034FF01D024FF0010100F0CFFCA8B114E04FF001004CF647
S32100403EC8D438C2F2400888F8040040F20700C0F201004FF001034FF01D024FF040
S32100403EE4000100F0B9FC002808B0BDE8F0812DE9F0014FEA104189B20B46C0F310
S32100403F000F0080B2014648F2C954C2F2400448F22855C2F2400548F2E466C2F2A0
S32100403F1C400648F28157C2F2400748F2917CC2F2400C4FF00002002902D84FF026
S32100403F38000267E01846052862D80FF20808D8E800F0C0465F04172A3C4B002CFB
S32100403F545AD040F20B00C0F20100814254D24CF67440C2F24000A0F108004FEA4C
S32100403F70C10101EB000249E0002D47D040F20500C0F20200814241D24CF614407B
S32100403F8CC2F24000A0F108004FEAC10101EB000236E0AEB340F20900C0F20300F6
S32100403FA881422FD24CF63440C2F24000A0F108004FEAC10101EB000224E01FB3F1
S32100403FC4B1F1041F20D84CF6F430C2F24000A0F108004FEAC10101EB000215E00D
S32100403FE0BCF1000F12D040F20400C0F2050081420CD24CF6DC30C2F24000A0F180
S32100403FFC08004FEAC10101EB000201E04FF000021046BDE8F00170472DE97041E6
S321004040184FF000044FEA104189B248F2C955C2F2400548F29176C2F24006012988
S3210040403442D1B0F1011F3FD340F20B02C0F20102904239D2284617F07AF844F256
S321004040504C52C5F2410245F25F53C5F24933994200D190420AD0284644F24C51C1
S3210040406CC5F2410145F25F52C5F2493217F07DF840F21711284602F034FEC5F8BA
S32100404088170140F21B1229464FF0805009F08AF800287CD04FF0805002F0FFFDF5
S321004040A40446002C75D140F21B1229464FF0805002F04CFD04466CE0052968D1E9
S321004040C0B0F5A02F65D940F20401C0F2050188425FD24CF6D438C2F2400898F828
S321004040DC0400D0B14FF0050000F051FC04463CB94FF000004CF6D438C2F24008B4
S321004040F888F8040040F20700C0F201004FF001034FF019024FF0000100F0A4FB8A
S321004041140028304617F013F844F24C52C5F2410245F25F63C5F25333994200D1E9
S3210040413090420AD0304644F24C51C5F2410145F25F62C5F2533217F016F8304680
S3210040414C4FF03D0102F0CDFDC6F83D0031464EF20000C0F27B004FF0410209F07E
S3210040416821F8A0B14EF20000C0F27B0002F0C6FC044664B931464EF20000C0F29A
S321004041847B004FF0410202F012FC044601E04FF040042046BDE870812DE970416B
S321004041A04FF0000548F27F58C2F2400898F80000002840F0EF804FF0000048F29C
S321004041BCC956C2F2400648F28154C2F240044FF0010048F27F58C2F2400888F8B4
S321004041D8000040F21B1231464FF0805002F03AFD054640F21711304602F07DFDF0
S321004041F495B9D6F8171188420ED1304616F09FFF44F24C52C5F2410245F25F53AB
S32100404210C5F249338B4200D1824215D04FF001004CF6D438C2F2400888F80000C8
S3210040422C40F20700C0F201004FF001034FF001024FF0000100F00CFBA8B114E03B
S321004042484FF000004CF6D438C2F2400888F8000040F20700C0F201004FF00103DC
S321004042644FF001024FF0010100F0F6FA002821464FF048024FF4940002F01FFC99
S32100404280054620464FF0440102F031FD8DB9616C88420ED1204616F054FF44F2D6
S3210040429C4C52C5F2410244F25F13C5F253338B4200D182421DD04FF001004CF672
S321004042B8D438C2F2400888F803004FF0010048F22058C2F2400888F8000040F279
S321004042D40700C0F201004FF001034FF004024FF0000100F0B9FAA8B114E04FF0D7
S321004042F000004CF6D438C2F2400888F8030040F20700C0F201004FF001034FF031
S3210040430C04024FF0010100F0A3FA0028FFF77BFC4CF6D438C2F2400898F8030009
S3210040432850BB40F20500C0F201004FF002024FF0010100F0E6F9A069B0F5940F9A
S321004043440AD940F20500C0F201004FF004024FF0010100F0D8F909E040F20500E3
S32100404360C0F201004FF004024FF0000100F0CDF920694EF20001C0F23101884295
S3210040437C0AD209E040F20500C0F201004FF002024FF0000100F0BBF9BDE8708173
S321004043982DE9004111B94FF0080071E0002802D84FF008006CE04FF00102052806
S321004043B467D80FF20808D8E800F0C0466404182C3F524CF6D438C2F2400898F88A
S321004043D00000002857D1084640F21B1248F2C951C2F2400108F01CFE4FF00002F2
S321004043EC4BE04CF6D438C2F2400898F80100002843D1084648F22851C2F2400137
S321004044084FF0570208F008FE4FF0000237E04CF6D438C2F2400898F8020080BB4D
S32100404424084648F2E461C2F240014FF0AD0208F0F5FD4FF0000224E04CF6D43809
S32100404440C2F2400898F80300E8B9084648F28151C2F240014FF0480208F0E2FD3B
S3210040445C4FF0000211E04CF6D438C2F2400898F8040050B9084648F29171C2F2A7
S3210040447840014FF0410208F0CFFD4FF000021046BDE800812DE9F04404460F46B5
S321004044949246B4F1011F02D24FF0080025E017B94FF0080021E04FF000054FF06E
S321004044B000004FF000062046FFF71BFD28B10668B24504D04FF0080501E04FF073
S321004044CC01056DB940F20301C0F201018C4205D132464168384608F09DFD01E0C2
S321004044E84FF040052846BDE8F0842DE9F04404460F469246B4F1011F02D24FF0CE
S32100404504080028E017B94FF0080024E04FF000054FF000004FF000062046FFF706
S32100404520E8FC28B10668B24504D04FF0080501E04FF0010585B940F20301C0F2AB
S3210040453C01018C4205D13A46F1B24068FFF739FB04E032464168384608F064FDA6
S321004045582846BDE8F08430B50D464FF000044FF00002002800D915B94FF00804A4
S3210040457408E0FFF7BCFC024612B11068286001E04FF00104204630BD2DE9F04D79
S3210040459004468A469346002C02D84FF008004BE0BAF1000F02D14FF0080045E065
S321004045AC4FF000054FF000064FF000072046FFF79AFC0646BEB33768B4F1011FCB
S321004045C814D14CF6D438C2F2400898F8000068B14FF0010000F0D5F905463DB97A
S321004045E44FF000004CF6D438C2F2400888F80000BBF1FF3F03D0BB4501D04FF09F
S321004046000805C5B940F20300C0F20100844206D17268F8B201465046FFF7D1FA26
S3210040461C04E03A465146706808F0FCFC2046FFF7F3FC054601E04FF0010528464F
S32100404638BDE8F08D2DE9F04504460F469246002C02D84FF008005AE017B94FF0A6
S32100404654080056E04FF000054FF0000148F2C956C2F240064FF000002046FFF754
S3210040467040FC08B301688A4502D04FF008051DE0B4F1011F15D340F20B02C0F200
S3210040468C010294420FD84CF6D438C2F2400898F800202AB90A463946406808F0C0
S321004046A8BBFC07E04FF0010504E04FF0400501E04FF0010515BB40F20200C0F289
S321004046C4010084421CD140F21711304602F00DFBC6F8170140F21B1231464FF02B
S321004046E0805008F063FD68B14FF0805002F0D9FA05463DB940F21B1231464FF00D
S321004046FC805002F027FA05462846BDE8F0852DE9704181B005460E4614464FF076
S3210040471801004FF007018DF802104FF003018DF803104CF6D438C2F2400898F8AB
S321004047340010002940F08D80284640F20508C0F20108B0EB080002D0013813D0B4
S3210040475025E00DF1020140F20500C0F201004FF00102FFF7C6FEC0B29DF8021002
S3210040476C01F00701C9B28DF8021014E00DF1030140F20600C0F201004FF00102BD
S32100404788FFF7B3FEC0B29DF8031001F00301C9B28DF8031001E04FF0400000287E
S321004047A457D15EBB40F20600C0F20100854212D19DF8030040EA0400C0B28DF820
S321004047C003000DF1030140F20600C0F201004FF00102FFF7DBFEC0B23DE09DF872
S321004047DC020040EA0400C0B28DF802000DF1020140F20500C0F201004FF0010225
S321004047F8FFF7C8FEC0B22AE040F20600C0F20100854212D19DF8030020EA0400EC
S32100404814C0B28DF803000DF1030140F20600C0F201004FF00102FFF7AFFEC0B204
S3210040483011E09DF8020020EA0400C0B28DF802000DF1020140F20500C0F20100AC
S3210040484C4FF00102FFF79CFEC0B201B0BDE870812DE9F04D90B004460F461546F2
S321004048689B464FF0010A48F22E00C0F24400694600F1400203680B6000F10400B8
S3210040488401F104018242F7D14FF000062046FFF72EFB0646204640F20708C0F2E0
S321004048A00108B0EB0800023808D8694620464FF04002FFF71EFEC0B2824601E02D
S321004048BC4FF0400ABAF1000F4AD1DFB9204640F20708C0F20108B0EB0800023865
S321004048D80FD805F007004FF0010101FA00F24FEAD50069460144087840EA0200BF
S321004048F4C0B208701DE04FF0400A1AE0204640F20708C0F20108B0EB08000238B9
S321004049100FD805F007004FF0010101FA00F24FEAD50069460144087820EA0200A6
S3210040492CC0B2087001E04FF0400ABBF1000F08D0694620464FF04002FFF722FE96
S32100404948C0B2824606E02EB1694670684FF0400208F062FB504610B0BDE8F08D39
S3210040496400B54FF0000150B1014640F20200C0F204004FF00402FFF7BAFD014691
S3210040498001E04FF00801084600BD2DE930414FF0000148F2C954C2F2400448F251
S3210040499C9175C2F240050146013903D0043900F0B98004E140F21B1220464FF017
S321004049B8FF0108F0A5FB204644F24C51C5F2410145F25F52C5F2493216F0D1FBE7
S321004049D440F20F10A0604FF00100A0814FF01000E08104F110004FF010024FF08A
S321004049F0FF0108F089FB4FF0020020844FF00400608404F124004FF004024FF040
S32100404A0CFF0108F07BFB4FF0030020854FF0020060854FF6FF70A0854FF00400B1
S32100404A28E0854FF0010020864FF0FF0084F832004FF00500A4F833004FF00100A2
S32100404A44A4F835004FF0000084F837004FF0060020874FF0010060874FF00000FB
S32100404A6084F83C004FF00700A4F83D004FF04000A4F83F0004F141004FF040020C
S32100404A7C4FF0000108F042FB4FF00800A4F881004FF04000A4F8830004F18500E7
S32100404A984FF040024FF0000108F032FB4FF00900A4F8C5004FF04000A4F8C7004B
S32100404AB404F1C9004FF040024FF0000108F022FB4FF00A0040F20918A044A8F8EC
S32100404AD000004FF00A0040F20B18A044A8F8000040F20D1020444FF00A024FF025
S32100404AECFF0108F00BFB40F21711204602F0F9F8C4F817014FF0805002F0CDF82D
S32100404B080146002957D140F21B1221464FF0805002F01AF801464EE028464FF0B8
S32100404B2441024FF0FF0108F0EDFA284644F24C51C5F2410145F25F62C5F2533260
S32100404B4016F019FB4FF00100A8814FF02000E88105F110004FF020024FF0FF0122
S32100404B5C08F0D4FA4FF0020028864FF0040068864FF0FF3068634FF003002887E7
S32100404B784FF0010068874FF0FF0085F83C0028464FF03D0102F0AFF8C5F83D0037
S32100404B944EF20000C0F27B0001F0B2FF014661B929464EF20000C0F27B004FF034
S32100404BB0410201F0FEFE014601E04FF008010846BDE8308100B500F0ACFF02F01D
S32100404BCCA2F800BD00B500F0A6FF02F09CF800BD70B504460E4613464FF0000543
S32100404BE832461946204601F0E0FEC0B2054645B93246214648F2D470C2F2400053
S32100404C0407F0E4FE01E04FF00105284670BD2DE9104114464FF00103402921D84E
S32100404C2004B34CF6C448C2F24008C8F808104CF6C448C2F24008D8F808202146B0
S32100404C3C4CF6C448C2F24008D8F8000008F0EAF94CF6C440C2F2400001F0A6FE52
S32100404C5810B94FF0000301E04FF001031846BDE8108100B50EF020FF00BD00B5F3
S32100404C7440F20000C2F2400000F108004FF002024FF0000108F03EFA00BD2DE939
S32100404C90F04904464FF010064FF000074FF0000048F6B005C2F240050CF0EDFB95
S32100404CAC20B14FF0060000F0D0FF03E04FF0000000F0CBFF4FF0060000F0D2FFEF
S32100404CC8002840F0C3804FF000000CF0E3FB48F2D470C2F2400007F0B9FE48F678
S32100404CE4F807C2F2400707F1040739464FF0200208F05AFA002840F09880012CA8
S32100404D0008D14FF0FE0048F69C08C2F24008C8F8000005E048F69C08C2F24008DA
S32100404D1CC8F800404FF0000048F69C08C2F24008C8F804004FF0000048F69C0833
S32100404D38C2F24008C8F8100029464FF048024FF4940001F0B8FE074628464FF0DD
S32100404D54440101F0CAFF8FB96C6CA0420ED1284616F0EDF944F24C5BC5F2410BE3
S32100404D7044F25F1CC5F2533C8C4500D183452FD04FF0000048F69C08C2F2400864
S32100404D8CC8F808004FF0000048F69C08C2F24008C8F80C004FF0040048F69C08EF
S32100404DA8C2F24008C8F8000040F20600C0F201004FF002024FF00001FFF7A3FCEA
S32100404DC440F20800C0F201004FF001034FF001024FF00001FFF740FDE0B33BE0FA
S32100404DE040F20800C0F201004FF001034FF001024FF00101FFF732FD0028A86960
S32100404DFC48F69C08C2F24008C8F80800286948F69C08C2F24008C8F80C0005F17E
S32100404E182000014640F20A00C0F201004FF00A02FFF7B0FB14E04FF0040048F681
S32100404E349C08C2F24008C8F8000040F20600C0F201004FF002024FF00001FFF758
S32100404E505CFC01E04FF480663046BDE8F08940F2DF70704700B501F04EFF00BD22
S32100404E6C00B501F04DFF00BD4EF20000C0F2310070474FF4940070472DE9F0497E
S32100404E8885B005460F4693464FF001044FF0000000904FF0000048F27000C0F26C
S32100404EA4440001A902680A6042684A6082688A60C068C8604FF00000002D00F016
S32100404EC0A581002F00F0A2814FF0000658464FF28718B0EB080020D210F5C47097
S32100404EDC10D2023000F2D78000F0D08041F20428CFF6FF78B0EB080000F0A48085
S32100404EF8013000F09C80D2E0003800F0CB8040F22318B0EB08001FD02E3870D051
S32100404F14303847D0C5E0663812D26630122800F2C0800FF20808D8E800F0C046CC
S32100404F3098AA529DA2A5BCBCBCBC8EBC93BC77BC694F5F00013871D36BD00138E3
S32100404F4C5DD0AAE04FF0000401A84FF010024FF0000108F0D3F840F24001C1F6E2
S32100404F68003101A84FF0080208F056F801F0F1FF01A901F10801086044F204084E
S32100404F84C4F22708D8F8000001A901F10C01086001A928464FF0100208F040F86C
S32100404FA04FF01000388080E04FF0000440F20008C2F24008D8F80F00014628463B
S32100404FBC4FF00A0208F02EF84FF00A0038806EE04FF001166BE0FEF7C5FD20B9AA
S32100404FD840F20306C0F2040663E040F20A06C0F201065EE040F20206C0F2010611
S32100404FF459E040F20306C0F2020654E040F20106C0F202064FE04FF000044FF055
S32100405010010028704FF00100388046E04FF0041643E040F20506C0F201063EE0F7
S3210040502C40F20606C0F2010639E040F20306C0F2010634E040F20406C0F2010615
S321004050482FE040F20706C0F203062AE040F20406C0F2020625E040F20106C0F20D
S32100405064030620E040F20206C0F203061BE04FF0031618E040F20406C0F20306AA
S3210040508013E04FF0021610E040F20906C0F201060BE040F20806C0F2010606E0D0
S3210040509C40F20706C0F2010601E04FF04004402C00F0AE804FF2EF10834500F0D4
S321004050B8A9804FF28010834500F0A4804FF22210834500F09F8069463046FFF75B
S321004050D444FA00984FF6FF71884205D34FF008044FF0000038808FE0BDF80000E7
S321004050F0388040F20300C0F20100864206D1009A29463046FFF7C2F904467FE046
S3210040510C304640F20108C0F20308B0EB0800033801D9033855D148F2E467C2F281
S321004051284007394644F20000C1F200004FF0AD0201F090FD044638464FF0A90159
S3210040514401F0D3FDA4B9D7F8A910884210D1384615F0F5FF83468C4644F24C50D4
S32100405160C5F2410044F25F11C5F24331614500D1584517D04FF001004CF6D4389B
S3210040517CC2F2400888F8020040F20700C0F201004FF001034FF003024FF00001A0
S32100405198FFF760FB002844F0010414E04FF000004CF6D438C2F2400888F8020004
S321004051B440F20700C0F201004FF001034FF003024FF00101FFF748FB0028009AEA
S321004051D029463046FFF78DF9044640F20700C0F20100864212D105F1010040F212
S321004051EC0008C2F2400898F81510017005F1020040F21501C2F2400101F101010E
S3210040520809780170204605B0BDE8F0892DE9F04504460F4692464FF00105002CE6
S321004052245DD0002F5BD94FF0000650464FF28918B0EB08000FD00F3802D0013807
S3210040524010D01CE04FF0030000F010FD10B94FF0011616E04FF4806513E040F28F
S3210040525C0306C0F204060EE04FF0040000F000FD20B940F20206C0F2010604E05D
S321004052784FF4806501E04FF04005402D2DD0B5F5806F2AD04FF29810824510D1B9
S321004052943A4621463046FFF777F9054625B94FF0040000F0D6FC1AE04FF000008E
S321004052B000F0D1FC15E03A4621463046FFF7BEF9054655B940F20200C0F20100A0
S321004052CC864204D14FF0050000F0BFFC03E04FF0000000F0BAFC2846BDE8F085A4
S321004052E800B501F01FFBFEF72AFC00F016FC40F20900C0F201004FF001034FF017
S3210040530403024FF00001FFF7A7FA002801F0FFFC00BD4DF8048D4FF0000148F646
S321004053202868C2F2400898F80020027008465DF8048B70474DF8048D007848F608
S3210040533C2868C2F2400888F800005DF8048B70472DE930014FF000044FF0020598
S3210040535848F62C68C2F24008C8F800504FF004051D602046BDE8300170472DE947
S32100405374004100F0D4FB4FF0100040F20008C2F2400888F80A0040F20A00C2F2D8
S32100405390400000F101004FF0010101704FF0010048F63068C2F2400888F8000045
S321004053ACBDE8008100B5FEF7E0FBC0B200BD2DE9F04106460C464FF010054FF04D
S321004053C8010000F044FC4FF00000FEF7DBFB48F6F800C2F2400000F104004FF0EA
S321004053E420024FF0000107F08DFE48F6F800C2F2400000F124004FF480624FF0E0
S32100405400000107F081FE48F6F800C2F2400040F2244108444FF00A024FF000013B
S3210040541C07F074FE48F6F800C2F2400040F22E4108444FF480724FF0000107F042
S3210040543867FE214648F6F800C2F2400000F104004FF0200207F0E8FD04F12000D5
S32100405454014648F6F800C2F2400000F124004FF4806207F0DBFD04F58460014658
S3210040547048F6F800C2F2400040F2244738444FF00A0207F0CDFD40F22A4020448B
S3210040548C014648F6F800C2F2400040F22E4420444FF4807207F0BEFD48F6F80820
S321004054A8C2F24008C8F800602846BDE8F0812DE9F0448EB01E464FF0000748F296
S321004054C48503C0F244030BAC1D8825805D8865809D88A580DD88E5801B892381DE
S321004054E048F28F03C0F2440308AC1D8825805D8865809D88A580DD88E5801B8925
S321004054FC238148F28003C0F2440306AC1D7825705D7865709D78A570DD78E5709A
S321004055181B79237148F29903C0F2440303AC1D8825805D8865809D88A580DD88C8
S32100405534E5801B89238148F2A303C0F244036C461D8825805D8865809D88A5807F
S32100405550DD88E5801B8923814FF000044FF000054FF000034FF0020000F080FB72
S3210040556C002840F06B81FEF7F5FA20B940F20303C0F2040303E040F20A03C0F217
S321004055880103694618464FF00A02FEF7AEFF0BA968464FF00A0207F005FE0028F4
S321004055A400F03F8106A968464FF0050207F0FCFD002800F0368108A968464FF0F5
S321004055C00A0207F0F3FD002800F02D8148F6F803C2F2400340F224442344194640
S321004055DC03A84FF00A0207F01DFD03AB03F101031B782E2B40F0118103AB03F170
S321004055F804031B782E2B40F00A819DF80C30302BC0F005819DF80C30392B00F21A
S32100405614008103AB03F102031B78302BC0F0F98003AB03F102031B78392B00F265
S32100405630F28003AB03F103031B78302BC0F0EB8003AB03F103031B78392B00F264
S3210040564CE48003AB03F105031B78302BC0F0DD8003AB03F105031B78392B00F260
S32100405668D68003AB03F106031B78302BC0F0CF8003AB03F106031B78392B00F25E
S32100405684C8806B4603F101031B782E2B40F0C1806B4603F104031B782E2B40F0AE
S321004056A0BA809DF80030302BC0F0B5809DF80030392B00F2B0806B4603F1020374
S321004056BC1B78302BC0F0A9806B4603F102031B78392B00F2A2806B4603F1030365
S321004056D81B78302BC0F09B806B4603F103031B78392B00F294806B4603F1050362
S321004056F41B78302BC0F08D806B4603F105031B78392B00F286806B4603F106035F
S321004057101B78302B7FD36B4603F106031B78392B79D89DF80030A3F1300342F241
S3210040572C107403FB04F56B4603F102031B78A3F130034FF47A7404FB03F36C46C4
S3210040574804F103042478A4F130044FF0640C0CFB04F423441D446B4603F105037B
S321004057641B78A3F130034FEA830423444FEA43036C4604F106042478A4F13004CD
S3210040578023441D449DF80C30A3F1300342F2107403FB04F403AB03F102031B787F
S3210040579CA3F130034FF47A7C0CFB03F30DF10C0C0CF1030C9CF800C0ACF1300C5F
S321004057B84FF0640A0AFB0CFC63441C4403AB03F105031B78A3F130034FEA830C02
S321004057D463444FEA43030DF10C0C0CF1060C9CF800C0ACF1300C63441C44AC4206
S321004057F009D348F2D470C2F2400006F0D1FE4FF00403336018E04FF00503336099
S3210040580C4FF0000000F021FA10E04FF0050333604FF0000000F019FA08E048F2C2
S32100405828D470C2F2400006F0B7FE4FF0040333603368042B06D14FF0030000F08F
S3210040584408FA01E04FF4806738460EB0BDE8F0842DE9F04D83460C4692464FF01B
S3210040586010054FF000064FF000074FF0050000F0FDF9002840D164B3BAF1080F0A
S3210040587C29D120784FEA006004F1010109784FEA0141084404F1020109784FEAAE
S321004058980121084404F10301097801EB000604F1040000784FEA006004F10501CF
S321004058B409784FEA0141084404F1060109784FEA0121084404F10701097801EBBC
S321004058D0000748F63468C2F24008C8F800B048F63468C2F24008C8F8046048F6F1
S321004058EC3468C2F24008C8F8087001E04FF480652846BDE8F08D2DE9104181B059
S321004059084FF00000ADF802004FF0000448F2B830C0F2440008F016FD01F01BFBEA
S321004059240446B4F1FF3F01D0002C51D148F64460C2F240004FF001024FF0040179
S3210040594001F034FE44F20408C4F22708D8F8000048F64068C2F24008C8F8000049
S3210040595C02F0F0FC03F016FF40B14FF0000048F64468C2F24008D8F8004016E0E7
S3210040597844F20408C4F22708D8F8000048F64068C2F24008D8F8001048F2A062D8
S32100405994C0F201021144A0EB01000028DCDB4FF00200A8B10DF1020140F203006C
S321004059B0C0F201004FF00202FEF79BFD44F20408C4F22708D8F80000BDF8021054
S321004059CC4FEA014140EA010420460EF065F84FF0000048F69C08C2F24008C8F831
S321004059E800004FF0000048F69C08C2F24008C8F804004FF0000048F69C08C2F2A7
S32100405A044008C8F808004FF0000048F69C08C2F24008C8F80C004FF0000048F6CA
S32100405A209C08C2F24008C8F810004FF0000048F63468C2F24008C8F800004FF0A0
S32100405A3C000048F63468C2F24008C8F804004FF0000048F63468C2F24008C8F899
S32100405A5808004FF0000048F6F808C2F24008C8F8000048F6F800C2F2400000F190
S32100405A7404004FF020024FF0000107F043FB48F6F800C2F2400000F124004FF474
S32100405A9080624FF0000107F037FB48F6F800C2F2400040F2244108444FF00A0211
S32100405AAC4FF0000107F02AFB48F6F800C2F2400040F22E4108444FF480724FF0B1
S32100405AC8000107F01DFB01B0BDE810814FF0000070474FF0000070474DF8048DC3
S32100405AE448F62C68C2F24008D8F800005DF8048B70474DF8048D48F63468C2F2C3
S32100405B004008C8F800005DF8048B70474DF8048D48F63468C2F24008D8F8000024
S32100405B1C5DF8048B704700B5FFF7A5F800BD4DF8048D48F69C08C2F24008D8F803
S32100405B3800005DF8048B70474DF8048D48F69C08C2F24008C8F800005DF8048B18
S32100405B54704710B4024648F69C04C2F240040BCC0BC294E8030082E8030010BCFA
S32100405B7070474DF8048D48F63468C2F24008C8F800005DF8048B7047024648F68F
S32100405B8C3460C2F240000BC882E80B0070474DF8048D48F6F808C2F24008C8F860
S32100405BA800005DF8048B70474DF8048D48F6F808C2F24008D8F800005DF8048B3C
S32100405BC4704748F6FC00C2F24000704748F61C10C2F24000704748F61C50C2F270
S32100405BE04000704748F62650C2F24000704700B54FF4A66248F6F801C2F24001E1
S32100405BFC14F093FD00BD4DF8048D48F63068C2F2400898F800005DF8048B704723
S32100405C184DF8048D48F63068C2F2400888F800005DF8048B704700B581B00090F1
S32100405C34694640F20200C0F205004FF0FF32FEF7A3FC01B000BD00B5FFF769FFEF
S32100405C5001F05FF800BD4DF8048D48F64868C2F24008C8F800005DF8048B7047D2
S32100405C6C4DF8048D4FF0010148F64868C2F24008D8F80020904201D14FF0000101
S32100405C8808465DF8048B70474DF8048D44F20408C4F22708D8F800005DF8048B20
S32100405CA470470028FDD070472DE910414FF0000444F20408C4F22708D8F800405A
S32100405CC049F22058C2F24008D8F80000A4EB0000002810DB05F0AAFB4FF0010087
S32100405CDC05F003FC45F60010C0F20600204449F22058C2F24008C8F80000BDE8F7
S32100405CF810812DE900414FF000004FF00000FFF77CFF01281DD149F22858C2F2ED
S32100405D14400898F80000B0B944F20408C4F22708D8F800004CF25031084449F2AF
S32100405D302458C2F24008C8F800004FF0010049F22858C2F2400888F8000049F227
S32100405D4C2858C2F2400898F8000001281DD144F20408C4F22708D8F8000049F2A0
S32100405D682458C2F24008D8F80010A0EB010000280DDB4FF00000FFF74BFF4FF027
S32100405D84000049F22858C2F2400888F8000026F089FBBDE800812DE9F041064633
S32100405DA00F4615464FF000042AF0DCFA28F047FB44F20408C4F22708D8F800006D
S32100405DBC07EB0601A0EB0100002802DB4FF0020404E0284629F0BEFD0128E7D0B0
S32100405DD8284629F085FD08B14FF001042046BDE8F0814DF8048D4FF0010149F295
S32100405DF40D58C2F2400888F8001040B14FF0000049F20C58C2F2400888F8000011
S32100405E1007E04FF0010049F20C58C2F2400888F800005DF8048B70472DE93041CC
S32100405E2C83B04FF000044FF0010001F024FD49F22C58C2F24008C8F800004AF295
S32100405E48C020C0F244002AF085FB48F24441C0F2440140F20000C2F240004FF06D
S32100405E64080207F0DBF84FF0020040F20008C2F2400888F80C004FF02F0040F265
S32100405E800008C2F2400888F80D0040F20D00C2F2400000F101004FF00701017052
S32100405E9C42F21840C0F2400040F20008C2F24008C8F80F0040F26000C2F240009B
S32100405EB806F02EFB40F26000C2F2400000F10C004FF03C024FF0FF0107F01AF920
S32100405ED44FF0010003F028FC40F26008C2F2400888F80C0040F26C00C2F2400061
S32100405EF000F101054FF0600003F018FC287040F26C00C2F2400000F102054FF052
S32100405F0C440003F00DFC287040F26C00C2F2400000F103054FF0450003F002FC5B
S32100405F28287040F26C00C2F2400000F104054FF00E0003F0F7FB287040F26C008B
S32100405F44C2F2400000F105054FF0020003F0ECFB287040F26C00C2F2400000F1D6
S32100405F6006054FF0630003F0E1FB287040F26C00C2F2400000F107054FF02300DA
S32100405F7C03F0D6FB287040F26C00C2F2400000F108054FF0210003F0CBFB287026
S32100405F9840F26C00C2F2400000F109054FF0610003F0C0FB287040F26C00C2F2DE
S32100405FB4400000F10A054FF04A0003F0B5FB287040F26C00C2F2400000F10B05F4
S32100405FD04FF02E0003F0AAFB287040F26C00C2F2400000F10C054FF02F0003F0DD
S32100405FEC9FFB287040F26C00C2F2400000F10D054FF0330003F094FB287040F2CE
S321004060086C00C2F2400000F10E054FF0320003F089FB287040F26C00C2F24000C0
S3210040602400F10F054FF0050003F07EFB287040F26C00C2F2400000F110054FF0F6
S32100406040280003F073FB287040F26C00C2F2400000F111054FF02A0003F068FB85
S3210040605C287040F26C00C2F2400000F112054FF0480003F05DFB287040F26C00A8
S32100406078C2F2400000F113054FF0930003F052FB287040F26C00C2F2400000F19C
S3210040609414054FF00C0003F047FB287040F26C00C2F2400000F115054FF00A0093
S321004060B003F03CFB287040F26C00C2F2400000F116054FF0670003F031FB2870D1
S321004060CC40F26C00C2F2400000F117054FF00B0003F026FB287040F26C00C2F28B
S321004060E8400000F118054FF06E0003F01BFB287040F26C00C2F2400000F1190519
S321004061044FF02B0003F010FB287040F26C00C2F2400000F11A054FF0830003F0E2
S3210040612005FB287040F26C00C2F2400000F11B054FF0810003F0FAFA287040F271
S3210040613C6C00C2F2400000F11C054FF0880003F0EFFA287040F26C00C2F24000C2
S3210040615800F11D054FF0850003F0E4FA287040F26C00C2F2400000F11E054FF0C0
S321004061748D0003F0D9FA287040F26C00C2F2400000F11F054FF0130003F0CEFA2A
S32100406190287040F26C00C2F2400000F120054FF0860003F0C3FA287040F26C00C2
S321004061ACC2F2400000F121054FF02C0003F0B8FA287040F26C00C2F2400000F15B
S321004061C822054FF01A0003F0ADFA287040F26C00C2F2400000F123054FF01900C0
S321004061E403F0A2FA287040F26C00C2F2400000F124054FF0510003F097FA2870DA
S3210040620040F26C00C2F2400000F125054FF01D0003F08CFA287040F26C00C2F2D0
S3210040621C400000F126054FF0300003F081FA287040F26C00C2F2400000F12705A0
S321004062384FF0360003F076FA287040F26C00C2F2400000F128054FF0340003F07E
S321004062546BFA287040F26C00C2F2400000F129054FF0390003F060FA287040F2AB
S321004062706C00C2F2400000F12A054FF03F0003F055FA287040F26C00C2F2400062
S3210040628C00F12B054FF0570003F04AFA287040F26C00C2F2400000F12C054FF037
S321004062A8540003F03FFA287040F26C00C2F2400000F12D054FF05A0003F034FA0D
S321004062C4287040F26C00C2F2400000F12E054FF05B0003F029FA287040F26C0044
S321004062E0C2F2400000F12F054FF05E0003F01EFA287040F26C00C2F2400000F180
S321004062FC30054FF0590003F013FA287040F26C00C2F2400000F131054FF05C0087
S3210040631803F008FA287040F26C00C2F2400000F132054FF0740003F0FDF92870A8
S3210040633440F26C00C2F2400000F133054FF0780003F0F2F9287040F26C00C2F2CD
S32100406350400000F134054FF07E0003F0E7F9287040F26C00C2F2400000F135059C
S3210040636C4FF07C0003F0DCF9287040F26C00C2F2400000F136054FF0770003F04D
S32100406388D1F9287040F26C00C2F2400000F137054FF0910003F0C6F9287040F246
S321004063A46C00C2F2400000F138054FF0960003F0BBF9287040F26C00C2F2400063
S321004063C000F139054FF0940003F0B0F9287040F26C00C2F2400000F13A054FF044
S321004063DC9A0003F0A5F9287040F26C00C2F2400000F13B054FF0170003F09AF9FD
S321004063F8287049F6C060C0F2440025F021FF4FF0000025F0A4FF26F012F80028E2
S32100406414FBD125F0F7FF4FF0000025F0C9FF26F01BF840F26008C2F24008C8F8B4
S3210040643008004FF0000029F0DEFF49F65020C0F2440023F004F849F66420C0F2A4
S3210040644C440032F032FF49F6A050C0F2440020F01BF844F20408C4F22708D8F818
S32100406468000049F23058C2F24008C8F8000049F60830C0F2440017F085F845F22B
S32100406484E450C0F2450034F0A0FE06F027F84FF000001EF0CFFA4FF001014FF01E
S321004064A0000017F078F94FF0000027F0CEFD49F6DC60C0F2440029F060F94FF0DF
S321004064BC00001EF0CDFB4FF0020029F043FA10B14FF00100DBE14FF0020029F0FA
S321004064D807FA10B14FF00100D3E14FF0000029F033FA10B14FF00100CBE14FF03B
S321004064F4000029F0F7F910B14FF00100C3E105F08EFF44F20408C4F22708D8F81F
S32100406510000045F60011C0F20601084449F22058C2F24008C8F8000049F22C58AA
S3210040652CC2F2400898F8000049F23458C2F2400888F8000049F22C58C2F2400883
S32100406548D8F80000042807D14FF0030049F22C58C2F24008C8F8000001F054F922
S3210040656449F20E58C2F24008A8F8000001F006FAC0B249F21E58C2F2400888F808
S32100406580000049F22C58C2F24008D8F80000032815D103F0F2F844EA000445F6D3
S3210040659CEB50C0F2400000F0F0FF44EA000449F21F52C2F240024FF000014FF03E
S321004065B8000001F0ECF94FF04000029049F23450C2F2400000F1030040F2600859
S321004065D4C2F24008D8F808104FEA1161C9B2017049F23450C2F2400000F1040042
S321004065F040F26008C2F24008D8F808104FEA1141C9B2017049F23450C2F24000A1
S3210040660C00F1050040F26008C2F24008D8F808104FEA1121C9B2017049F23450A2
S32100406628C2F2400000F1060040F26008C2F2400898F80810017049F23450C2F203
S32100406644400000F107004FEA1461C9B2017049F23450C2F2400000F108004FEA3D
S321004066601441C9B2017049F23450C2F2400000F109004FEA1421C9B2017049F255
S3210040667C3450C2F2400000F10A00E1B2017049F23450C2F2400000F10B0040F264
S321004066980008C2F2400898F80810017049F23450C2F2400000F10C0040F2080198
S321004066B4C2F2400101F101010978017049F23450C2F2400000F10D0040F20008BE
S321004066D0C2F2400898F80A10017049F23450C2F2400000F10E0040F20A01C2F2AE
S321004066EC400101F101010978017049F23450C2F2400000F10F0040F20008C2F284
S32100406708400898F80C10017049F23450C2F2400000F1100040F20008C2F24008E0
S3210040672498F81510017049F23450C2F2400000F1110040F21501C2F2400101F109
S3210040674001010978017049F23450C2F2400000F1120040F20008C2F24008D8F847
S3210040675C17104FEA1161C9B2017049F23450C2F2400000F1130040F20008C2F278
S321004067784008D8F817104FEA1141C9B2017049F23450C2F2400000F1140040F21F
S321004067940008C2F24008D8F817104FEA1121C9B2017049F23450C2F2400000F1AD
S321004067B0150040F20008C2F2400898F81710017049F23450C2F2400000F116005A
S321004067CC40F20008C2F24008D8F81B104FEA1161C9B2017049F23450C2F24000F0
S321004067E800F1170040F20008C2F24008D8F81B104FEA1141C9B2017049F23450E0
S32100406804C2F2400000F1180040F20008C2F24008D8F81B104FEA1121C9B20170AD
S3210040682049F23450C2F2400000F1190040F20008C2F2400898F81B10017049F2BC
S3210040683C3450C2F2400000F11A0049F20E58C2F24008B8F800104FEA2121C9B224
S32100406858017049F23450C2F2400000F11B0049F20E58C2F2400898F80010017000
S3210040687449F23450C2F24000009069464FF001001EF0E7F8204603B0BDE8308134
S321004068902DE910414FF000044FF0090020F0A6FA4FF0000020F0A2FA00F03FFAF0
S321004068AC44EA000400F05EFB27F00AFC28F0E7FF4FF002014FF0000016F067FF07
S321004068C816F0AFFE44F20408C4F22708D8F8000049F23058C2F24008D8F8001025
S321004068E4A0EB010040F20008C2F24008C8F817004FF0000049F23058C2F24008BB
S32100406900C8F800001FF0CFFE22F0E5FD2046BDE810814DF8048D4FF0010049F2B8
S3210040691C1D58C2F2400888F800005DF8048B704770472DE9104104464FF00100E5
S3210040693849F21C58C2F2400898F8001061B34FF0000049F21C58C2F2400888F834
S32100406954000049F21058C2F24008D8F8082049F21058C2F24008D8F80010206843
S3210040697006F056FB4FF00000606049F21058C2F24008D8F80800A06049F210506D
S3210040698CC2F240004FF00C024FF0000106F0B6FB4FF00000BDE8108100B5014610
S321004069A84FF000001EF053F800BD2DE9F04582B006468A461746BAF1000F02D1B5
S321004069C44FF0080076E04FF00004FFF76DF972B607F00700D8B93B465246A6F5CA
S321004069E0800001464FF0020029F0B5FA44EA0004002C5FD144F20408C4F22708D0
S321004069FCD8F8000047F230514FF00202FFF7C7F944EA000450E048F24D48C0F2D3
S32100406A184408D8F8000048F24D48C0F24408D8F804100090019127F0070507F013
S32100406A340700024605EB0A000146684606F0EEFA002D19D92B465246A6F58000A1
S32100406A5001464FF0020029F07EFA44EA00046CB944F20408C4F22708D8F800007D
S32100406A6C47F230514FF00202FFF791F944EA00046A46A6F58000284401464FF05C
S32100406A8808034FF0020029F062FA44EA00046CB944F20408C4F22708D8F800009D
S32100406AA447F230514FF00202FFF775F944EA000462B6204602B0BDE8F0852DE99D
S32100406AC010414FF0000413460A46A0F5800001464FF0020029F017FA44EA00043E
S32100406ADC44F20408C4F22708D8F8003048F2A061C0F2010118464FF00202FFF7AB
S32100406AF850F944EA00042046BDE810812DE9304105464FF00004FFF7CDF872B62D
S32100406B14A5F5800001464FF400524FF0020029F040FA44EA000444F20408C4F26B
S32100406B302708D8F8002047F2305110464FF00202FFF72BF944EA000462B62046C7
S32100406B4CBDE830812DE9F04582B006468A461746BAF1000F02D14FF0080076E071
S32100406B684FF00004FFF79EF872B607F00700D8B93B465246A6F1805001464FF03F
S32100406B84000029F0E6F944EA0004002C5FD144F20408C4F22708D8F8000047F2F9
S32100406BA030514FF00002FFF7F8F844EA000450E048F25548C0F24408D8F80000E4
S32100406BBC48F25548C0F24408D8F804100090019127F0070507F00700024605EB43
S32100406BD80A000146684606F01FFA002D19D92B465246A6F1805001464FF0000038
S32100406BF429F0AFF944EA00046CB944F20408C4F22708D8F8000047F230514FF037
S32100406C100002FFF7C2F844EA00046A46A6F18050284401464FF008034FF00000EB
S32100406C2C29F093F944EA00046CB944F20408C4F22708D8F8000047F230514FF01A
S32100406C480002FFF7A6F844EA000462B6204602B0BDE8F0852DE910414FF000042E
S32100406C6413460A46A0F1805001464FF0000029F048F944EA000444F20408C4F2BA
S32100406C802708D8F8003048F2A061C0F2010118464FF00002FFF781F844EA000454
S32100406C9C2046BDE810812DE9304105464FF00004FEF7FEFF72B6A5F1805001461E
S32100406CB84FF400524FF0000029F071F944EA000444F20408C4F22708D8F80020DA
S32100406CD447F2305110464FF00002FFF75CF844EA000462B62046BDE8308100B508
S32100406CF04FF000024FF001034FF0FF321EF055FA0246104600BD40F22670704717
S32100406D0C40F22E70704700B525F0C8FB00BD00B5FEF7C6FFFEF7EBFF4FF00000C7
S32100406D2800BD2DE900414FF0000004F07BFB4FF0010004F0D4FB44F20408C4F251
S32100406D442708D8F8000045F60011C0F20601084449F22058C2F24008C8F800002E
S32100406D604FF00000BDE800812DE9004181B04FF0000249F22C58C2F24008D8F818
S32100406D7C0030032B19D144F20408C4F22708D8F8002049F27458C2F24008C8F893
S32100406D9800204FF0010200924CF6E443C2F2400349F27952C2F2400200F0EAFC73
S32100406DB40246104601B0BDE800812DE9104104464FF0000049F22C58C2F240085D
S32100406DD0D8F8001003294ED101F0B2FA49F20D58C2F2400898F8000060B34FF01B
S32100406DEC000049F20D58C2F2400888F8000049F20C58C2F2400898F80000D0B17D
S32100406E084FF0000049F20C58C2F2400888F8000049F27951C2F2400120464FF02F
S32100406E24200206F0FBF849F27950C2F240004FF020024FF0000106F065F94FF0D5
S32100406E40000001E04FF0100044F20408C4F22708D8F8001049F27458C2F24008B6
S32100406E5CD8F8002049F28063C0F298031A44A1EB0201002901DB4FF00000BDE8A3
S32100406E7810812DE9704190B006460D464FF0000448F25D40C0F2440008AA016856
S32100406E9411604168516081689160C168D160016911614169516181699161C06960
S32100406EB0D06148F27D40C0F244006A46016811604168516081689160C168D1604A
S32100406ECC016911614169516181699161C069D06149F22C58C2F24008D8F800006B
S32100406EE8032827D108A84FF020024FF0000106F007F968464FF020024FF0FF0190
S32100406F0406F000F9294608A84FF0200206F04CF930B1294668464FF0200206F02C
S32100406F2045F910B94FF0010408E0294630464FF0200206F03BF908B14FF001046F
S32100406F3C204610B0BDE870814DF8048D49F22C58C2F24008D8F800005DF8048BF2
S32100406F5870474DF8048D40F20008C2F24008D8F81B005DF8048B70474FF000004F
S32100406F744FF0000011E001464FEA810148F2A042C0F24402114409680A6942F00A
S32100406F9002020A614FF000020A6100F101000528EBD3704730B5054649F29C5495
S32100406FACC2F240044FF0000004F120004FF0000303724FF0000384F8463045B94E
S32100406FC843680BB143681A60036813B1006806F023F82068C06818B12068C16809
S32100406FE42846884730BD70B4039D9DF810604FF000041AB111B94FF008041EE037
S3210040700003B125B929688A4201D944F008040EB1032E0ED1A0F10200022806D8BB
S3210040701C12B102F00F0060B144F0080409E042B944F0080405E012B102F00F0030
S3210040703808B144F00804204670BC70472DE9F04C8B4615461F46DDF81CA09DF8AB
S3210040705420604FF000044FF0000101F0DCF901462DB1BBF1000F02D14FF0080413
S321004070701CE00EB1032E0BD117B1BAF1000F15D119B1DAF80000814210D94FF007
S3210040708C08040DE0022E06D115B105F03F0038B14FF0080404E005F03F0008B1A3
S321004070A84FF008042046BDE8F08C2DE9F04D04460D4616469A46DDF824B04FF0A0
S321004070C400074FF00000912C03D14FF0040001F0A2F9BAF1000F03D016B94FF029
S321004070E008072CE0DDF82080B8F1000F02D0BBF1000F02D14FF0080721E0902C9B
S321004070FC05D1BAF5807F02D94FF0080719E0012D12D1922C05D1BAF1F50F02D95D
S321004071184FF008070FE0912C0DD14FEA4000C0F1FE00504507D24FF0080704E075
S32100407134BAF5807F01D94FF008073846BDE8F08D30B49DF808504FF0000419B1A5
S3210040715010B94FF0080415E00DB1032D04D102B183B94FF008040DE0022D06D1E4
S3210040716C11B101F03F0038B14FF0080404E001F03F0008B14FF00804204630BC31
S321004071887047F0B587B007460E464FF0000449F29C55C2F240054FF00000029632
S321004071A403A84FF010024FF0000105F0ABFF40F20400C0F201004FF000010191F3
S321004071C002A9009103AB3246394600F08AFC04464CB92868406820B12868416885
S321004071DC03A8884701E04FF00804204607B0F0BD2DE9F04D90B003908B46924612
S321004071F84FF0000549F29C56C2F240064FF000054FF000044FF0000102914FF031
S3210040721400044FF000074FF010040CA84FF010024FF0FF0105F06EFF08A84FF0E6
S3210040723010024FF0000105F067FF224604A84FF0000105F061FF316889680029F3
S3210040724C5AD03168896804A888470546002D55D1224604A90CA806F033F8002801
S321004072684ED0224604A908A806F02CF8002847D00CA84FF010024FF0000105F04E
S3210040728441FF40F20405C0F201054FF00001019102A900910CAB224604A928462D
S321004072A000F062FC05467DBBBAF1000F07D05A460CA9039806F00AF808B14FF04A
S321004072BC01051DBB4FF400354FF0040402994CF6F048C2F24008C8F800100CA93D
S321004072D84CF6F840C2F240004FF0100205F09CFE029B4CF6F842C2F24002214690
S321004072F4284601F0A4F8054625B94FF0010701E04FF008051FB14FF0010186F811
S321004073104410284610B0BDE8F08D70B54FF0000049F29C54C2F24004256804F16E
S3210040732C2006307AE0B12868C0B128688047216C40F64052C0F203021144A0EB5A
S32100407348010000280CDB4FF00200E96809B1E96888474FF0000030724FF0000047
S3210040736484F8460002F00CF870BDF0B583B04FF0000549F29C56C2F240064FF060
S3210040738000044FF000024FF000014FF0000706F10404617E002900F0838061691C
S3210040739C99BB217E89BB4FF00101217662684FEA5231C2F30C021AB101F1010178
S321004073B8616100E06161616901290FD84FF000010291E1680191A1680091636821
S321004073D42268216901F0F1FF05464FF0010744E04FF0010102914FF00001019106
S321004073F04FF000010091226821694FF4005301F0DEFF054633E0217E89BB216927
S3210040740C01F101012161216801F5005121606168A1F500516160216901F1010168
S321004074286269914210D24FF0020102914FF0000101914FF00001009122682169F6
S321004074444FF4005301F0B9FF05460EE04FF003010291E1680191A1680091636858
S321004074602268216901F0ABFF05464FF00107207E10B14FF00000207697B14FF0CE
S3210040747C000060764FF0000086F8460020464FF01C024FF0000105F039FEF06A4C
S3210040749810B1F16A28468847284603B0F0BD00B54FF000004FF0000040F20210F4
S321004074B4C0F20100FFF759FF00BD70B506464FF0000549F29C54C2F240044FF0A1
S321004074D000004FF000004FF0000016B94FF0080501E0307C0028BDBB20464FF0EF
S321004074EC48024FF0000105F009FE2660307C84F845003DBB4FF0010084F84700CA
S321004075084FF0000084F8460001F03EFF00F4807111B100F0200048B94FF00000FB
S3210040752484F847004FF00200A0634FF0010514E001F076FE054615B14FF003000D
S32100407540A06346F6A570C0F2400000F039FF06E04FF00400A06302E04FF001002D
S3210040755CA063284670BD10B54FF0000449F29C50C2F2400090F8471029B14FF014
S3210040757848024FF0000105F0C3FD204610BD4FF0000149F29C52C2F2400292F856
S3210040759447302BB108B1D06204E04FF0080101E04FF40061084670472DE9F04457
S321004075B004468A464FF0000549F29C56C2F240064FF000004FF0000796F847009A
S321004075CC88B36CB396F8460038BB02B306F1200738464FF00C024FF0000105F069
S321004075E88FFD4FF0000038723C60504601F076FE45EA0005DDB930684FF0010192
S3210040760486F846104FF001013972016889B10068804730640DE05146204601F023
S3210040762026FE054607E04FF0100504E04FF0080501E04FF400652846BDE8F0841E
S3210040763C00B54FF0000049F29C50C2F240004FF00001C16390F8471071B190F8F0
S32100407658460040B94FF000024FF000014FF00000FFF7C0FD08E04FF0100005E002
S32100407674C16B41F00101C1634FF4006000BD30B587B004464FF0000549F29C5000
S32100407690C2F240004FF000054FF00001019190F8470098B340F20305C0F2010582
S321004076AC4FF01000019002A84FF004024FF0000105F024FD019A03A84FF00001D1
S321004076C805F01EFD214602A84FF0010205F0D8FF01A8009003AB02A928464FF0F2
S321004076E4040200F02BF8054685B9019903A8FFF74AFD45EA0005019903A84FF068
S321004077000102FFF773FD45EA000501E04FF40065284607B030BD4FF0000049F275
S3210040771C9C50C2F2400090F8471041B190F8440010B14FF0000004E04FF001006A
S3210040773801E04FF40060704770B583B0079C4FF0000549F29C55C2F2400595F8C3
S32100407754476096B195F8465065B94FF0000502950194009313460A464FF00001B8
S3210040777001F0A9FE054604E04FF0100501E04FF40065284603B070BD2DE9F0447B
S3210040778C83B09DF824404FF0000549F29C56C2F240064FF000074FF000074FF039
S321004077A8000C96F847703FB340F20217C0F2010796F846A0BAF1000F1BD16CB100
S321004077C406F104074FF0010486F846404FF001047C7638607960BA60FB6011E00C
S321004077E04FF000040294019300920B4602466146384601F0E4FD054604E04FF04A
S321004077FC100501E04FF40065284603B0BDE8F0842DE9004101F0BEFD49F29C5821
S32100407818C2F24008A8F8300049F29C58C2F24008B8F83000BDE800812DE930418A
S3210040783482B04FF000004FF48008D8E9004568464FF008024FF0000105F05CFC2C
S3210040785021462A4668464FF0010305F034FF684600F10400007802B0BDE83081C3
S3210040786C4DF8048D49F29C58C2F24008D8F83C005DF8048B704770B54FF00004AA
S3210040788849F29C55C2F2400529684FF00006002840D0FFF7C9FF092802D142F275
S321004078A4107603E041F68026C0F20606A6F1010601F06CFD04462C8604F48070A2
S321004078C018B101F09DFC012803D14FF00100686321E004F4807080B104F02000DD
S321004078DC68B104F4007050B104F4806018B14FF00400686344E04FF003006863E8
S321004078F840E004F4807030B104F0200018B14FF00200686336E04FF0000068633C
S3210040791432E0002ECAD12FE001F038FD04462C8604F4807018B101F069FC0128D5
S3210040793003D14FF00100686320E004F4807080B104F0200068B104F4007050B167
S3210040794C04F4806018B14FF00400686310E04FF0030068630CE004F4807030B178
S3210040796804F0200018B14FF00200686302E04FF000006863686B70BD4DF8048D12
S3210040798449F29C58C2F24008D8F838005DF8048B704770B585B005460E46144680
S321004079A04FF0000249F29C50C2F2400090F84700002845D04FF0000020706846A0
S321004079BC01F08EFE0246FABB049820FA05F000F0010020B1207840F00100C0B247
S321004079D82070009820FA05F000F0010020B1207840F00200C0B22070684600F1E9
S321004079F40400006820FA05F000F0010020B1207840F00400C0B22070029820FA72
S32100407A1006F000F0010020B1207840F00800C0B2207002A800F10400006820FA69
S32100407A2C06F000F0010038B1207840F01000C0B2207001E04FF40062104605B0BD
S32100407A4870BD00B585B04FF0000049F29C50C2F240004FF000014FF0000190F863
S32100407A64470020B1684601F037FE10B901E04FF4006005B000BD2DE9F04482B099
S32100407A8004460D4616461F469DF820A04FF0000049F29C50C2F2400090F84710B8
S32100407A9CE1B190F84600B0B9CDF804A0009733462A4621464FF00400FFF7C6FA76
S32100407AB880B9CDF804A04FF0040000903B4632462946204600F02EFD04E04FF0EB
S32100407AD4100001E04FF4006002B0BDE8F0842DE9F04C86B005900C4615461F46C2
S32100407AF0DDF834A09DF838B04FF0000649F29C51C2F2400191F8472042B391F83E
S32100407B0C461011BBCDF804B0CDF800A03B462A4621464FF00300FFF762FA0646DF
S32100407B28D6B9CDF810B04FF0010103914FF0000102914FF003010191CDF800A005
S32100407B443B462A462146059800F0CAFD46EA000604E04FF0100601E04FF400663A
S32100407B60304606B0BDE8F08C2DE9F04C86B005900C4615461F46DDF834A09DF809
S32100407B7C38B04FF0000649F29C51C2F2400191F8472042B391F8461011BBCDF808
S32100407B9804B0CDF800A03B462A4621464FF00300FFF71FFA0646D6B9CDF810B069
S32100407BB44FF0000103914FF0000102914FF003010191CDF800A03B462A46214636
S32100407BD0059800F087FD46EA000604E04FF0100601E04FF40066304606B0BDE878
S32100407BECF08C2DE9F04D85B00490039115469A46DDF834B04FF0000649F29C57A4
S32100407C08C2F240074FF000024FF0000497F84720002A59D097F84620002A52D110
S32100407C24CDF804B0CDF800A02B46039A4FF001014FF09000FFF73BFA0646002E5D
S32100407C4048D19DF83880B8F1000F2ED007F1200420464FF00C024FF0000105F0C2
S32100407C5C55FA4FF000022272C4F800A0C4F804B04FF0010202924FF0900201929C
S32100407C78CDF800B053462A460399049800F093FF46EA000616BB3A684FF0010386
S32100407C9487F846304FF0010323721368C3B112689047386414E04FF0010202921B
S32100407CB04FF090020192CDF800B053462A460399049800F04BFE064604E04FF0B0
S32100407CCC100601E04FF40066304605B0BDE8F08D2DE9F04D85B00490039115465E
S32100407CE89A46DDF834B04FF0000649F29C57C2F240074FF000024FF0000497F820
S32100407D044720002A58D097F84620002A51D1CDF804B0CDF800A02B46039A4FF0F8
S32100407D2000014FF09000FFF7C4F90646002E47D19DF83880B8F1000F2DD007F1F2
S32100407D3C200420464FF00C024FF0000105F0DEF94FF000022272C4F800A0C4F815
S32100407D5804B04FF0000202924FF090020192CDF800B053462A460399049800F036
S32100407D741CFF064616BB3A684FF0010387F846304FF0010323721368C3B112685A
S32100407D909047386414E04FF0000202924FF090020192CDF800B053462A460399D7
S32100407DAC049800F0D5FD064604E04FF0100601E04FF40066304605B0BDE8F08DBB
S32100407DC82DE9F04D85B00490039115469A46DDF834B04FF0000649F29C57C2F28E
S32100407DE440074FF000024FF0000497F84720002A58D097F84620002A51D1CDF824
S32100407E0004B0CDF800A02B46039A4FF001014FF09200FFF74EF90646002E47D118
S32100407E1C9DF83880B8F1000F2DD007F1200420464FF00C024FF0000105F068F99D
S32100407E384FF000022272C4F800A0C4F804B04FF0010202924FF092020192CDF846
S32100407E5400B053462A460399049800F0A6FE064616BB3A684FF0010387F8463050
S32100407E704FF0010323721368C3B112689047386414E04FF0010202924FF092025F
S32100407E8C0192CDF800B053462A460399049800F05FFD064604E04FF0100601E099
S32100407EA84FF40066304605B0BDE8F08D2DE9F04D85B00490039115469A46DDF8C2
S32100407EC434B04FF0000649F29C57C2F240074FF000024FF0000497F84720002A66
S32100407EE058D097F84620002A51D1CDF804B0CDF800A02B46039A4FF000014FF06C
S32100407EFC9200FFF7D8F80646002E47D19DF83880B8F1000F2DD007F120042046B6
S32100407F184FF00C024FF0000105F0F2F84FF000022272C4F800A0C4F804B04FF0BB
S32100407F34000202924FF092020192CDF800B053462A460399049800F030FE0646CF
S32100407F5016BB3A684FF0010387F846304FF0010323721368C3B112689047386470
S32100407F6C14E04FF0000202924FF092020192CDF800B053462A460399049800F0DE
S32100407F88E9FC064604E04FF0100601E04FF40066304605B0BDE8F08D2DE9F04D03
S32100407FA485B00490039115469A46DDF834B04FF0000649F29C57C2F240074FF07D
S32100407FC000024FF0000497F84720002A58D097F84620002A51D1CDF804B0CDF853
S32100407FDC00A02B46039A4FF001014FF09100FFF762F80646002E47D19DF8388055
S32100407FF8B8F1000F2DD007F1200420464FF00C024FF0000105F07CF84FF00002B9
S321004080142272C4F800A0C4F804B04FF0010202924FF091020192CDF800B0534661
S321004080302A460399049800F0BAFD064616BB3A684FF0010387F846304FF0010365
S3210040804C23721368C3B112689047386414E04FF0010202924FF091020192CDF86D
S3210040806800B053462A460399049800F073FC064604E04FF0100601E04FF4006657
S32100408084304605B0BDE8F08D2DE9F04D85B00490039115469A46DDF834B04FF06A
S321004080A0000649F29C57C2F240074FF000024FF0000497F84720002A58D097F8F4
S321004080BC4620002A51D1CDF804B0CDF800A02B46039A4FF000014FF09100FEF7BF
S321004080D8ECFF0646002E47D19DF83880B8F1000F2DD007F1200420464FF00C02F8
S321004080F44FF0000105F006F84FF000022272C4F800A0C4F804B04FF00002029281
S321004081104FF091020192CDF800B053462A460399049800F044FD064616BB3A6802
S3210040812C4FF0010387F846304FF0010323721368C3B112689047386414E04FF0D2
S32100408148000202924FF091020192CDF800B053462A460399049800F0FDFB0646F0
S3210040816404E04FF0100601E04FF40066304605B0BDE8F08D2DE9F04C84B00646D7
S321004081800C4615461F46DDF82CA09DF830B04FF0000049F29C50C2F2400090F893
S3210040819C4710F9B190F84600C8B9CDF800B053463A4629462046FEF7C7FFA8B9B2
S321004081B8CDF80CB04FF0010002904FF093000190CDF800A03B462A46214630467C
S321004081D400F041FF04E04FF0100001E04FF4006004B0BDE8F08C2DE9F04C84B007
S321004081F006460C4615461F46DDF82CA09DF830B04FF0000049F29C50C2F240005F
S3210040820C90F84710F9B190F84600C8B9CDF800B053463A4629462046FEF78EFF53
S32100408228A8B9CDF80CB04FF0000002904FF093000190CDF800A03B462A46214621
S32100408244304600F008FF04E04FF0100001E04FF4006004B0BDE8F08C2DE9F04C8D
S3210040826084B006460C4615461F46DDF82CA09DF830B04FF0000049F29C50C2F2FA
S3210040827C400090F84710F9B190F84600C8B9CDF800B053463A4629462046FEF730
S3210040829855FFA8B9CDF80CB04FF0010002904FF094000190CDF800A03B462A46C2
S321004082B42146304600F0CFFE04E04FF0100001E04FF4006004B0BDE8F08C2DE92C
S321004082D0F04C84B006460C4615461F46DDF82CA09DF830B04FF0000049F29C5002
S321004082ECC2F2400090F84710F9B190F84600C8B9CDF800B053463A462946204601
S32100408308FEF71CFFA8B9CDF80CB04FF0000002904FF094000190CDF800A03B4606
S321004083242A462146304600F096FE04E04FF0100001E04FF4006004B0BDE8F08C9A
S3210040834010B54FF0000449F29C50C2F2400090F8470028B1FFF7A7F80446FEF73C
S3210040835CDEFF01E04FF40064204610BD2DE930414FF000044AF63324C5F2A55416
S32100408378A24204D1022902D14FF0000401E04FF0010449F2F058C2F24008D8F835
S32100408394001089B149F2F058C2F24008D8F8005040F24008C2F24308D8F8002035
S321004083B040F24401C2F243012046A847BDE830814DF8048D4FF0000130B149F21F
S321004083CCF058C2F24008C8F8000001E04FF0080108465DF8048B704710B54FF035
S321004083E801044AF21E10CAF6552048F2E041C0F2440148F2B840C0F244000BF01A
S3210040840493FF4AF63321C5F2A551884201D14FF00004204610BD4FF000020146A9
S32100408420023904D0023905D0023906D007E04FF0140204E04FF0200201E04FF029
S3210040843C4002104670472DE9F04485B004460D4617469A464FF001064DF2F14080
S32100408458C3F2D6304FF000004FF0000010F048FC4FF00101049103971FFA8AF141
S3210040847402914FF0000101910095224601464FF012034FF000000CF0F4FF4AF63B
S321004084903321C5F2A551884201D14FF00006304605B0BDE8F08430B581B04FF00F
S321004084AC01044DF2F145C3F2D63500929AB213460A464FF020010CF096FF054671
S321004084C84AF63320C5F2A550854201D14FF00004204601B030BD2DE9F04C85B0AC
S321004084E4BDF830A00D9DBDF838600F9FBDF840C04FF000044DF2F14BC3F2D63BD3
S32100408500CDF810C0039702960195CDF800A00DF05AF883464AF63320C5F2A55000
